:100000000C9440000C94DD190C94061A0C942F1AD1
:100010000C94581A0C94811A0C94B71D0C94F21B72
:100020000C94C91B0C94A01B0C94D6180C94771B31
:100030000C944E1B0C94251B0C94FC1A0C94D31A94
:100040000C94AA1A0C94B71D0C9403190C942F1934
:100050000C945B190C94931D0C94B71D0C94B71D54
:100060000C94B71D0C94B71D0100010C80010C010C
:1000700020003B8001200146800146014A003B945C
:1000800011241FBECFEFD8E0DEBFCDBFE8E6F0E021
:1000900040E017C0B591A59135912591059107FDD7
:1000A0000CC095918591EF01F92FE82F05900D92E5
:1000B000A217B307D9F7FE0104C01D92A217B30718
:1000C000E1F7E038F40731F70E944C080C94881DE2
:0400D000F894FFCFD2
:1000D400256400656E74657200207573652074680C
:1000E40065206B657970616420202020666F722022
:1000F4006D6F766500456D6265646465642073792F
:100104007374656D736578616D2020202020202034
:10011400202020202064657369676E65723A6D6FD4
:1001240068616D6564004164642070726F64756316
:100134007400656E7465722070726F647563740008
:10014400656E746572207072696365002331393994
:100154003000666F7220636F6E666967206F662079
:1001640020206D616368696E6520706C65617365DC
:100174002020656E746572207061737320636F64F0
:100184006520000000000000000000000000776F00
:10019400726E672070617373776F7264007269673F
:1001A40068742070617373776F726400746865207B
:1001B4006D616368696E65206E656564746F207334
:1001C4006574757020666F722020202066726973D2
:1001D400742075736500456E7465722074686520BB
:1001E4006361736820616E64207072657373206547
:1001F4006E74657220007468652063617368206999
:1002040073206E6F7420656E6F756768007468651F
:1002140020726573743A2000686176652061206EEF
:100224006963652070726F647563740077656C63CD
:100234006F6D6520746F206D792076656E64696ECC
:1002440067206D616368696E6520006E6F2070724F
:100254006F647563747320696E20746865206D61C2
:060264006368696E65008D
:10026A0068076C094C836A9074A07AC00080688819
:06027A0000846C8200818B
:07028000286E756C6C29006B
:06028700286E696C2900DD
:10028E002F923F924F926F927F928F929F92AF9248
:10029E00BF92CF92DF92EF92FF920F931F93CF9365
:1002AE00DF93CDB7DEB72E970FB6F894DEBF0FBE35
:1002BE00CDBF4C016B0138011A8219828FEF9FEF6F
:1002CE009C838B831E821D8258874F833A87298792
:1002DE00A12CB12CD6012D913D914C912A0D3B1D97
:1002EE00411DB7FC4A95F901849147FD808181112A
:1002FE0016C0F601208331834283F901849147FDB4
:10030E008081853209F00FC21901442EFFEF2F1A9A
:10031E003F0A4F0AD6012D923D924C921BC0853258
:10032E0041F3B401082E000C990B0E946C164FEF8E
:10033E00A41AB40ACFCF2C32DCF02D3229F5298144
:10034E003A8121603A8329830196A11DF6018083AB
:10035E009183A283F60180819181A281FC01249177
:10036E00A7FD20812B3239F729813A812460EACF0B
:10037E00203221F429813A812860E4CF233251F4CE
:10038E0029813A812061DECF203321F429813A81FF
:10039E002260D8CFB701C6010E94BE179E838D83FF
:1003AE0097FF0BC029813A81F1E02F273A832983E9
:1003BE009195819591099E838D8389819A8180FF84
:1003CE0003C08D7F9A838983F60180819181A281FA
:1003DE00FC012491A7FD20812E3261F40196A11D0E
:1003EE00F60180839183A283B701C6010E94BE17D6
:1003FE009C838B83C6010E948815182FD6012C91E1
:10040E0011968C91119712969C91E22FF82F849150
:10041E0097FD8081082E000C990B0E94AF1D893626
:10042E0009F44AC084F4833609F419C134F48532D0
:10043E0009F445C18136E1F050C18436E9F18836C0
:10044E000CF4E9C04AC1803709F4B0C03CF48E36D2
:10045E0009F4D6C08F3609F46DC03FC1853709F453
:10046E004AC0883709F485C0833709F036C10DC1FB
:10047E00612F70E0A701CE010B960E940000892B20
:10048E0009F448C1F60180819181A2819C014A2F15
:10049E002F5F3F4F4F4F208331834283FC012491C6
:1004AE00A7FD2081AE01455F5F4FBE016F5F7F4F9D
:1004BE00C4010E9400002BC1612F70E0970141E042
:1004CE0050E0CE010B960E949511892B09F422C1A2
:1004DE00F60180819181A2810196A11D8083918375
:1004EE00A283AE01455F5F4FBE016F5F7F4FC401B8
:1004FE000E9445100CC1612F70E0970140E050E062
:10050E00CE010B960E949511892B09F403C1F601B9
:10051E0080819181A2810196A11D80839183A28306
:10052E00AE01455F5F4FBE016F5F7F4FC4010E94FA
:10053E00B516EDC0612F70E0970140E050E0CE019E
:10054E000B960E949511892B09F4E4C0F601808167
:10055E009181A2810196A11D80839183A283AE0118
:10056E00455F5F4FBE016F5F7F4FC4010E94E8136E
:10057E00CEC0612F70E0970140E050E0CE010B96A7
:10058E000E949511892B09F4C5C0F60180819181D5
:10059E00A2819C014A2F2F5F3F4F4F4F2083318303
:1005AE004283FC012491A7FD208120C0970140E0E9
:1005BE0050E060EF70E0CE010B960E949511892BF2
:1005CE0009F4A8C0F60180819181A2810196A11D36
:1005DE0080839183A2838B859C85892B31F400E0E7
:1005EE0010E027E832E040E08CC028E7AE01455F1E
:1005FE005F4FBE016F5F7F4FC4010E942D0B87C0FE
:10060E00A501460D571D612F70E09701CE010B9687
:10061E000E9400007FC0612F70E0A701CE010B96F3
:10062E000E940000892B09F475C0F601808191812A
:10063E00A2819C014A2F2F5F3F4F4F4F2083318362
:10064E004283FC012491A7FD2081AE01455F5F4FDF
:10065E00BE016F5F7F4FC4010E94000058C010386A
:10066E0009F058C0F60180819181A2810196A11DE9
:10067E0080839183A283D701ED91FC911197CF01D5
:10068E0002968D939C93808126C0103809F042C04B
:10069E00F60180819181A2810196A11D80839183B3
:1006AE00A283D701ED91FC911197CF0103968D9303
:1006BE009C9320813181428100E010E022C01038ED
:1006CE0049F5F6012081318142812F5F3F4F4F4F17
:1006DE002083318342838B870EC085E28B87F601A0
:1006EE002082318242821A8219821E821D828FEFEF
:1006FE009FEF9C838B839E01255F3F4F40E801E077
:10070E0010E0BE016F5F7F4FC4010E9445178A0D36
:10071E009B1D0AC0F60180819181A2810196A11DC7
:10072E0080839183A283C5012E960FB6F894DEBF07
:10073E000FBECDBFDF91CF911F910F91FF90EF9024
:10074E00DF90CF90BF90AF909F908F907F906F90E3
:08075E004F903F902F90089589
:100766008F929F92AF92BF92CF92DF92EF92FF92BB
:100776000F931F93CF93DF93CDB7DEB7CF54D10935
:100786000FB6F894DEBF0FBECDBF5C017B014A01F8
:1007960007E021E040E066E2CE0101960E94631C7C
:1007A60023E042E066E2CE0105960E94631CC12C5E
:1007B600D12C17C096012A5E3F4F44E1489DC001E7
:1007C600499D900D1124820F931F0E94481DE9E058
:1007D600F0E0EC0FFD1FEC0DFD1D80832FEFC21A1C
:1007E600D20A83E0C816D1042CF3BE01675F7F4F9F
:1007F60080E80E94FD164C012AED31E040E080E2DF
:10080600F901DE011D96742F0E94571DFE01BD964B
:1008160086E0DF011D928A95E9F7C5010E94391528
:10082600C12CD12C3BC09E01235F3F4F41E050E0DD
:1008360061E070E0C5010E941A0C9E01235D3F4FE6
:1008460046E050E063E070E0C5010E941A0C10E03B
:1008560013C0C7010E940212182FBFEF21EE84E0D9
:10086600B15020408040E1F700C0000067E083E21D
:100876000E94021D882319F0112359F305C00F2E7B
:10088600F3E0CF2ED12CF02DEDE2F0E0EC0FFD1FC2
:10089600EC0DFD1D10839FEFC91AD90AA4E0CA16F4
:1008A600D1040CF261E0CE0101960E94801CBFEFDC
:1008B60023ED80E3B15020408040E1F700C0000006
:1008C600CE0101960E94281DC5010E943915BE0160
:1008D600635D7F4F80E80E94FD169C018F3F910566
:1008E60019F014F02FEF30E028153905ACF42AEF93
:1008F60031E040E087E1F901DE01D396742F0E94D2
:10090600571DBE016D5C7F4FC5010E94380AC501A7
:100916000E94421483E07FC0821693060CF055C0F5
:100926000F2EF1E1CF2EF2E0DF2EF0E0EF2EF02DCC
:100936008BE0F601DE01D3967E2D0E94571D281905
:1009460039093F932F9384ED90E0A0E0AF939F93F6
:100956008F937E019AE4E90EF11CFF92EF920E94BA
:10096600151DBE016D5C7F4FC5010E94380AB70197
:10097600C5010E94380A60E0CE0101960E94801CE3
:10098600AFEFB3ED20E3A150B0402040E1F700C047
:100996000000CE0101960E94281D60E0CE0105965A
:1009A6000E94801C8FEF93EDA0E381509040A04001
:1009B600E1F700C00000CE0105960E94281D0FB683
:1009C600F894DEBF0FBECDBF22C02CE132E040E07E
:1009D60084E1F901DE01D396742F0E94571DBE01F2
:1009E6006D5C7F4FC5010E94380A60E0CE01059616
:1009F6000E94801C9FEFA3EDB0E39150A040B04051
:100A0600E1F700C00000CE0105960E94281DC50131
:100A16000E94421480E0C15BDF4F0FB6F894DEBF40
:100A26000FBECDBFDF91CF911F910F91FF90EF9039
:0E0A3600DF90CF90BF90AF909F908F9008956B
:100A44008F929F92AF92BF92CF92DF92EF92FF92DA
:100A54000F931F93CF93DF93CDB7DEB761970FB694
:100A6400F894DEBF0FBECDBF89829A82AB82BC826E
:100A7400CD82DE82EF82F88609871A872B873C872E
:100A84004D875E876F87788B898B8C2D0E94B91D6B
:100A94008C018A810E94B91DDC01F801818121E069
:100AA40030E0B9010E8002C0660F771F0A94E2F7A6
:100AB400A9010F8002C0440F551F0A94E2F708846D
:100AC40002C0220F331F0A94E2F7942F962B922B25
:100AD400982B91838FEF11968C93FFEF89EF90E021
:100AE400F15080409040E1F700C00000F80182819D
:100AF400682B62838281482B42838281282B228344
:100B0400FFEF21EE84E0F15020408040E1F700C087
:100B1400000088E38F9389809A80AB80BC80CD806D
:100B2400DE80EF80F88409851A852B853C854D8508
:100B34005E856F85788989890E94060DEFE9FFE05B
:100B44003197F1F700C0000082E08F9389809A808A
:100B5400AB80BC80CD80DE80EF80F88409851A8567
:100B64002B853C854D855E856F85788989890E94B2
:100B7400060D8FE99FE00197F1F700C0000086E0C1
:100B84008F9389809A80AB80BC80CD80DE80EF809B
:100B9400F88409851A852B853C854D855E856F858E
:100BA400788989890E94060DEFE9FFE03197F1F712
:100BB40000C0000080E88F9389809A80AB80BC805D
:100BC400CD80DE80EF80F88409851A852B853C85ED
:100BD4004D855E856F85788989890E94060D8FE928
:100BE4009FE00197F1F700C000008CE08F938980AB
:100BF4009A80AB80BC80CD80DE80EF80F88409854C
:100C04001A852B853C854D855E856F857889898914
:100C14000E94060DEFE9FFE03197F1F700C00000F4
:100C240081E08F9389809A80AB80BC80CD80DE8008
:100C3400EF80F88409851A852B853C854D855E8572
:100C44006F85788989890E94060D0F900F900F9007
:100C54000F900F900F9061960FB6F894DEBF0FBE01
:100C6400CDBFDF91CF911F910F91FF90EF90DF9057
:0C0C7400CF90BF90AF909F908F9008959C
:100C8000BF92CF92DF92EF92FF920F931F93CF9379
:100C9000DF93CDB7DEB7C855D1090FB6F894DEBFE4
:100CA0000FBECDBF6C017B0120E531E040E086E066
:100CB000F901DE011196742F0E94571D26E531E0DF
:100CC00040E081E3F901DE011796742F0E94571D61
:100CD000FE01F8968BE0DF011D928A95E9F79E01EF
:100CE000295F3F4F40E050E060E070E0C6010E94A5
:100CF0001A0CC6010E9442149E012D5B3F4F87E0F3
:100D0000F90111928A95E9F745E050E061E070E061
:100D1000C6010E941A0C00E010E0B12CA5C0C7016A
:100D20000E940212E3E4F0E0EC0FFD1FE00FF11F60
:100D30008083E3E4F0E0EC0FFD1FE00FF11F808102
:100D4000882369F3FFEF21EE84E0F15020408040DA
:100D5000E1F700C000009E012D5B3F4F45E050E0F1
:100D600061E070E0C6010E941A0CE1E0F0E0EC0FD7
:100D7000FD1FE00FF11F9081E3E4F0E0EC0FFD1F99
:100D8000E00FF11F8081981302C0B39401C0B12C11
:100D90000430110509F066C060E1C6010E94D2125C
:100DA000C6010E94421495E0B916A9F122E931E08A
:100DB00040E08FE0F901DE01A65BBF4F742F0E9477
:100DC000571D9E01265B3F4F41E050E061E070E01F
:100DD000C6010E941A0CC6010E94421480E090E0F5
:100DE00008C0E3E4F0E0EC0FFD1FE80FF91F1082EC
:100DF000019685309105ACF39E01295F3F4F45E098
:100E000050E061E070E0C6010E941A0CC6010E9429
:100E1000421400E010E0A5E0BA1224C021EA31E05B
:100E200040E08FE0F901DE01A65BBF4F742F0E9406
:100E3000571D9E01265B3F4F41E050E061E070E0AE
:100E4000C6010E941A0CC6010E94421466E070E0BE
:100E500084E40E94381DC6010E943915B701C601FD
:100E60000E9449070F5F1F4F053011050CF461CF39
:100E7000C85ADF4F0FB6F894DEBF0FBECDBFDF916B
:100E8000CF911F910F91FF90EF90DF90CF90BF9087
:020E90000895C3
:100E9200AF92BF92CF92DF92EF92FF920F931F9386
:100EA200CF93DF93CDB7DEB7E9970FB6F894DEBFE5
:100EB2000FBECDBF5C017B012AE231E040E08CE055
:100EC200F901DE011196742F0E94571DBE016F5F5A
:100ED2007F4FC5010E94380AC5010E944214FE01DB
:100EE2003D968CE0DF011D928A95E9F73C9687E0FA
:100EF200DF011D928A95E9F726E331E040E08EE0BA
:100F0200F901DE019096742F0E94571D24E431E00E
:100F120040E08CE0F901DE019E96742F0E94571D7D
:100F2200C12CD12C00E04CC09E01205E3F4F40E01E
:100F320050E060E070E0C5010E941A0C9E01235F40
:100F42003F4F40E050E061E070E0C5010E941A0CA2
:100F520010E013C0C7010E940212182FBFEF21EE4A
:100F620084E0B15020408040E1F700C0000067E01B
:100F720083E20E94021D882319F0112359F305C050
:100F82000F2EFBE0CF2ED12CF02D133209F401E00D
:100F9200011109C0EDE0F0E0EC0FFD1FEC0DFD1DAD
:100FA2008FE1810F8083013041F4EDE0F0E0EC0F3E
:100FB200FD1FEC0DFD1D155F10839FEFC91AD90AA5
:100FC200ABE0CA16D1040CF4AFCFC5010E943915AB
:100FD200188EC12CD12C3BC09E01225D3F4F40E0B8
:100FE20050E060E070E0C5010E941A0C9E01275E8D
:100FF2003F4F46E050E063E070E0C5010E941A0CEA
:1010020010E013C0C7010E940212182FBFEF21EE99
:1010120084E0B15020408040E1F700C0000067E06A
:1010220083E20E94021D882319F0112359F305C09F
:101032000F2EF3E0CF2ED12CF02DE9E1F0E0EC0FF2
:10104200FD1FEC0DFD1D10839FEFC91AD90AA4E004
:10105200CA16D1040CF21C8EBE01675E7F4F80E877
:101062000E94FD16BC01CE010D960E945B0FC501C8
:101072000E943915E9960FB6F894DEBF0FBECDBFB8
:10108200DF91CF911F910F91FF90EF90DF90CF9062
:06109200BF90AF9008952D
:10109800CF93DF93CDB7DEB7C656D1090FB6F89414
:1010A800DEBF0FBECDBF67E070E080E00E94381D54
:1010B800FE0131968AE0DF011D928A95E9F780E703
:1010C800898382E78A838FE68B8384E68C8385E72E
:1010D8008D8383E68E8384E78F8381E3888700E0AE
:1010E80010E009C0B80168537F4FCE0101960E94F5
:1010F8005B0F0F5F1F4F0A301105A4F388E0ECE087
:10110800F1E0DE011B9601900D928A95E1F7689453
:10111800CC24C2F8CB8A0F2EF5E0DF2EF02DDC8A26
:1011280016E01D8B87E08E8BAA24A394AF8A68945F
:10113800992491F8988E0F2EF3E0BF2EF02DB98EDA
:10114800CE0147967C0109E29E012D5E3F4F49E2A0
:1011580060E003960E948D13AE01455F5F4F63E028
:10116800CE014A960E943013CE014A960E94391544
:101178009BA6ACA61DA6BEA6CFA6D8AA19AB8CE086
:10118800E4E1F1E0DE01D29601900D928A95E1F753
:10119800DE01D2965D010F2EF3E0EF2EF02D8E01C9
:1011A800025D1F4F23E2AE01455D5F4F63E2CE0152
:1011B800CE960E94EA1442E067E083E20E94331868
:1011C80042E060E089E20E943318CE014A960E940C
:1011D800B21907C0BE01625C7F4FCE014A960E94D9
:1011E800FA1786E090E00E94481D843499F786E05B
:1011F80090E00E94481D8434F9F420E332E040E096
:101208008FE1F901DE01A85BBF4F742F0E94571DC3
:10121800BE01685B7F4FCE014A960E94380ABFEF35
:1012280029E688E1B15020408040E1F700C0000085
:10123800CE014A960E943915CE014A960E94871916
:1012480087E090E00E94481D811112C02FE432E02F
:1012580040E08BE1F901DE01A85BBF4F742F0E94CB
:10126800571DBE01685B7F4FCE014A960E94380A1F
:0E127800BE01625C7F4FCE014A960E94D10FEC
:101286008F929F92AF92BF92CF92DF92EF92FF9290
:101296000F931F93CF93DF93CDB7DEB761970FB64A
:1012A600F894DEBF0FBECDBF89829A82AB82BC8224
:1012B600CD82DE82EF82F88609871A872B873C87E4
:1012C6004D875E876F87788B898B8C2D0E94B91D21
:1012D600FC01918121E030E0B9010E8002C0660F69
:1012E600771F0A94E2F7A9010F8002C0440F551F29
:1012F6000A94E2F7088402C0220F331F0A94E2F729
:10130600462B242B292B218300E010E00BC0EB8118
:10131600FC81E00FF11F41E060818A810E94331851
:101326000F5F1F4F0430110594F32FEF89EF90E004
:10133600215080409040E1F700C0000083E38F9386
:1013460089809A80AB80BC80CD80DE80EF80F88477
:1013560009851A852B853C854D855E856F8578893F
:1013660089890E94060D82E38F9389809A80AB80DB
:10137600BC80CD80DE80EF80F88409851A852B85B8
:101386003C854D855E856F85788989890E94060D25
:1013960088E28F9389809A80AB80BC80CD80DE8086
:1013A600EF80F88409851A852B853C854D855E85F9
:1013B6006F85788989890E94060D8CE08F938980D4
:1013C6009A80AB80BC80CD80DE80EF80F884098572
:1013D6001A852B853C854D855E856F85788989893B
:1013E6000E94060D86E08F9389809A80AB80BC8030
:1013F600CD80DE80EF80F88409851A852B853C85B3
:101406004D855E856F85788989890E94060D81E004
:101416008F9389809A80AB80BC80CD80DE80EF8000
:10142600F88409851A852B853C854D855E856F85F3
:10143600788989890E94060D0F900F900F900F9062
:101446000F900F9061960FB6F894DEBF0FBECDBF1A
:10145600DF91CF911F910F91FF90EF90DF90CF908A
:0A146600BF90AF909F908F90089503
:101470002F923F924F925F926F927F928F929F92A4
:10148000AF92BF92CF92DF92EF92FF920F931F9392
:10149000CF93DF93EC011B01612C712CC4C0E88554
:1014A00039854A855B856C857D852E2F8E859F8548
:1014B000AFE00E94701DD1F0C8F0EF70E06CEF93C8
:1014C00088809980AA80BB80CC80DD80EE80FF8000
:1014D000088519852A853B854C855D856E857F85C8
:1014E00088890E94060D81E0888B0F90E8853985F8
:1014F0004A855B856C857D852E2F8E859F85AFE126
:101500000E94701DD1F0C8F0EF70E069EF93888001
:101510009980AA80BB80CC80DD80EE80FF8008852A
:1015200019852A853B854C855D856E857F858889F3
:101530000E94060D82E0888B0F90E88539854A85E8
:101540005B856C857D852E2F8E859F85AFE20E9401
:10155000701DD1F0C8F0EF70E06DEF938880998036
:10156000AA80BB80CC80DD80EE80FF800885198555
:101570002A853B854C855D856E857F8588890E949F
:10158000060D83E0888B0F90F20180818F93888015
:101590009980AA80BB80CC80DD80EE80FF800885AA
:1015A00019852A853B854C855D856E857F85888973
:1015B0000E94EA0DF88409851A854B845C84BD85F8
:1015C000FE85EF850F902F2D302F412F542D652D47
:1015D0007B2F8F2F9E2FAFE30E94701D71F068F05C
:1015E000CE010E943915188619861A861B861C861C
:1015F0001D861E861F86188A13C02F2D302F412F5F
:10160000542D652D7B2F8F2F9E2FA1E00E94641DEE
:10161000288739874A875B876C877D878E879F8776
:10162000FFEF6F1A7F0A2101460C571CF2018081DF
:10163000811135CFDF91CF911F910F91FF90EF90E6
:10164000DF90CF90BF90AF909F908F907F906F90E2
:0A1650005F904F903F902F90089597
:10165A00AFE0B0E0E3E3FBE00C949D1C1C016B01DE
:10166A005A8349832B83FB018281938184809580ED
:10167A00E080F180A680B78097FD03C0E894E1F886
:10168A0002C081E090E0E981FA8140805180628065
:10169A0073809701207133273D832C838401E4FEF4
:1016AA0007C0411451046104710411F00250110978
:1016BA00F701E870FF27FF83EE83E3FE02C00150C3
:1016CA001109F6010084F185E02D3197FF87EE8735
:1016DA00EA0DFB1D10829C01201B310B39872887DC
:1016EA00C701827099279B878A87EB818E2FEE0F1D
:1016FA00990B9C01215431093D872C872E853F8502
:10170A002230310530F48C819D81892B09F041C04A
:10171A005BC0411451046104710459F18E859F859F
:10172A0001979F878E87C2018F7099278A3091050A
:10173A0014F4C09602C0895A9F4FEC85FD857A97AA
:10174A0048F49C012062215631092A31310510F4EE
:10175A000E94A61DEE85FF85EA0DFB1D80830150C0
:10176A00110984E076946794579447948A95D1F73F
:10177A00C5CF88859985800F911F1816190674F2AE
:10178A00101611060CF0BFCFEA85FB85EF2B31F658
:10179A00BACFE981FA8180819181A281B381892BB3
:1017AA008A2B8B2B89F0EE85FF85EA0DFB1D31977D
:1017BA002B8120838E859F8502979F878E87FC01C8
:1017CA00EA0DFB1D80E38083EE81FF81EF2B59F048
:1017DA002E853F85215031093F872E87F901EA0D71
:1017EA00FB1D80E28083F601208531852150310975
:1017FA008E859F85281B390B8A0D9B1DAC0160E8DD
:10180A008401C1010E94D7159C01F1018081918157
:10181A0090FF06C0F60182819381821793070CF428
:0A182A00C9012F96E2E10C94B91CED
:101834002F923F924F925F926F927F928F929F92DC
:10184400AF92BF92CF92DF92EF92FF920F931F93CA
:10185400CF93DF93EC012B013A011901672B61F55A
:10186400842F8F7080688F9388809980AA80BB8032
:10187400CC80DD80EE80FF80088519852A853B8534
:101884004C855D856E857F8588890E94060D920151
:1018940022953295307F3227207F3227260D371D3F
:1018A400832F880F880B288739878A878B878C87B3
:1018B4008D878E878F870F9081E04816510461F5DC
:1018C400862D8F70806C8F9388809980AA80BB80CE
:1018D400CC80DD80EE80FF80088519852A853B85D4
:1018E4004C855D856E857F8588890E94060D9201F1
:1018F40022953295307F3227207F3227260D371DDF
:10190400832F880F880B288739878A878B878C8752
:101914008D878E878F870F9082E04816510461F57A
:10192400862D8F7080698F9388809980AA80BB8070
:10193400CC80DD80EE80FF80088519852A853B8573
:101944004C855D856E857F8588890E94060D920190
:1019540022953295307F3227207F3227260D371D7E
:10196400832F880F880B288739878A878B878C87F2
:101974008D878E878F870F9083E04816510461F519
:10198400862D8F70806D8F9388809980AA80BB800C
:10199400CC80DD80EE80FF80088519852A853B8513
:1019A4004C855D856E857F8588890E94060DC20100
:1019B40082959295907F9827807F9827680E791E4C
:1019C400872D880F880B688679868A878B878C8712
:1019D4008D878E878F870F90488AB101CE010E9430
:1019E400380ADF91CF911F910F91FF90EF90DF9014
:1019F400CF90BF90AF909F908F907F906F905F90AB
:081A04004F903F902F900895D0
:101A0C008F929F92AF92BF92CF92DF92EF92FF9202
:101A1C000F931F93CF93DF93CDB7DEB761970FB6BC
:101A2C00F894DEBF0FBECDBF89829A82AB82BC8296
:101A3C00CD82DE82EF82F88609871A872B873C8756
:101A4C004D875E876F87788B898B8C2D0E94B91D93
:101A5C008C018A810E94B91DFC019981992309F49A
:101A6C004AC0913009F09DC068A16283D8011296DA
:101A7C003C91129781E090E0AC010E8002C0440FC3
:101A8C00551F0A94E2F7242F2095232312962C93AA
:101A9C00129712963C911297AC010F8002C0440F22
:101AAC00551F0A94E2F7242F2095232312962C938A
:101ABC00129712962C911297088402C0880F991FC6
:101ACC000A94E2F7922F982B12969C931297EFE9B7
:101ADC00FFE03197F1F700C0000012969C9112972D
:101AEC008095892312968C93EFEDFEE23197F1F7F6
:101AFC0000C0000056C082818F7098A1907F892B06
:101B0C008283D80112969C91129741E050E09A0181
:101B1C000E8002C0220F331F0A94E2F7822F8095A9
:101B2C00892312968C93129712968C911297088493
:101B3C0002C0440F551F0A94E2F7842B12968C9323
:101B4C00B5E0BA95F1F70000D80112969C91129766
:101B5C00842F8095982312969C93AFE1B3E0119754
:101B6C00F1F700C00000928168A1B0E16B9F900179
:101B7C0011249F70292B2283D80112969C911297C5
:101B8C00492B12964C93B5E0BA95F1F70000F80189
:101B9C009281892382838FE39FE10197F1F700C043
:101BAC00000061960FB6F894DEBF0FBECDBFDF917B
:101BBC00CF911F910F91FF90EF90DF90CF90BF903E
:081BCC00AF909F908F900895E7
:101BD4008F929F92AF92BF92CF92DF92EF92FF9239
:101BE4000F931F93CF93DF93CDB7DEB761970FB6F3
:101BF400F894DEBF0FBECDBF89829A82AB82BC82CD
:101C0400CD82DE82EF82F88609871A872B873C878C
:101C14004D875E876F87788B898B8C2D0E94B91DC9
:101C24008C018A810E94B91DFC019981992309F4D0
:101C340043C0913009F094C028A12283D8011296A0
:101C44004C91129781E090E09C010E8002C0220F1B
:101C5400331F0A94E2F7242B12962C9312971296B0
:101C64003C911297AC010F8002C0440F551F0A9497
:101C7400E2F7242F2095232312962C931297129681
:101C84002C911297088402C0880F991F0A94E2F7D6
:101C9400922F982B12969C93B5E0BA95F1F7000019
:101CA400F80192818095892382838FED9EE20197CA
:101CB400F1F700C0000054C082818F7098A1907F1A
:101CC400892B8283D80112962C91129741E050E01F
:101CD400CA010E8002C0880F991F0A94E2F7822B72
:101CE40012968C93129712968C911297088402C0C4
:101CF400440F551F0A94E2F7842B12968C93B5E097
:101D0400BA95F1F70000D80112969C911297842F8E
:101D14008095982312969C93AFE1B3E01197F1F765
:101D240000C00000928168A1B0E16B9F9001112472
:101D34009F70292B2283D80112969C911297492BCC
:101D440012964C93B5E0BA95F1F70000F801928130
:101D5400892382838FE39FE10197F1F700C000009C
:101D640061960FB6F894DEBF0FBECDBFDF91CF9161
:101D74001F910F91FF90EF90DF90CF90BF90AF90A5
:061D84009F908F9008956E
:101D8A00AF92BF92CF92DF92EF92FF920F931F937F
:101D9A00CF93DF93CDB7DEB760970FB6F894DEBF67
:101DAA000FBECDBF5C017B0187E090E00E94481D19
:101DBA00C12CD12C61C0FE0131968CE0DF011D924D
:101DCA008A95E9F71D861E861F86188A00E010E0AC
:101DDA0014C024E12E9DC0012F9D900D1124800F67
:101DEA00911F0A960E94481DE1E0F0E0EC0FFD1FEA
:101DFA00E00FF11F80830F5F1F4F0C3011054CF36A
:101E0A0000E010E016C098012A5E3F4F44E14E9D63
:101E1A00C0014F9D900D1124820F931F0E94481DEF
:101E2A00EDE0F0E0EC0FFD1FE00FF11F80830F5F84
:101E3A001F4F033011053CF3B3E0CB16D1042CF548
:101E4A0085E6E816F1040CF59E012F5F3F4F40E04E
:101E5A0050E0B601C5010E941A0C9E01235F3F4F54
:101E6A004DE050E0B601C5010E941A0CAFEFCA1A44
:101E7A00DA0ABFEFEB1AFB0A87E090E00E94481DDE
:101E8A0090E0E816F9060CF496CF60960FB6F8942F
:101E9A00DEBF0FBECDBFDF91CF911F910F91FF9093
:0C1EAA00EF90DF90CF90BF90AF900895B4
:101EB600CF92DF92EF92FF920F931F93CF93DF9310
:101EC60000D000D0CDB7DEB76C01162F072F87E004
:101ED60090E00E94481DE82EF12C19821A821B827E
:101EE6001C820F931F9384ED90E0A0E0AF939F9325
:101EF6008F93CE0101969F938F930E94151D0FB667
:101F0600F894DEBF0FBECDBF00E010E012C084E142
:101F16008E9DB0018F9D700D1124600F711F665F3D
:101F26007F4FF601E00FF11F80810E94381D0F5F81
:101F36001F4F0C3011055CF300E010E016C0B8012D
:101F46006A5E7F4F24E12E9DC0012F9D900D1124C6
:101F5600680F791FE1E0F0E0EC0FFD1FE00FF11FC5
:101F660080810E94381D0F5F1F4F043011053CF31E
:101F760087E090E00E94481D67E070E08F5F0E9456
:101F8600381D0F900F900F900F90DF91CF911F91FA
:0C1F96000F91FF90EF90DF90CF90089526
:101FA200CF93DF9300D000D000D0CDB7DEB76C0165
:101FB2007B0127ED30E040E086E0F901DE01119679
:101FC200742F0E94571D60E070E0C6010E94C50E8A
:101FD20000E0B12C9E012F5F3F4F4BE050E063E0E9
:101FE20070E0C6010E941A0C10E00BC0C7010E94EB
:101FF2000212182F67E083E20E94021D811101C0C4
:1020020003E0111102C0002389F3033071F44B2D58
:1020120050E0B701C6010E94B303082F833029F0B4
:1020220060E070E0C6010E94C50E1A3249F4B701A1
:10203200C6010E9440066B2D70E0C6010E94C50ECB
:10204200123351F4B110BA94C6010E9439156B2DA6
:1020520070E0C6010E94C50E183309F0BBCF8B2C6D
:10206200912C87E090E00E94481D90E0019788162D
:1020720099060CF4B394C6010E9439156B2D70E0D9
:08208200C6010E94C50EA6CFA5
:10208A00A2E0B0E0EBE4F0E10C949D1C4C016B0182
:10209A00FB0122813381A480B580808191819A835A
:1020AA00898366807780FA0120803180428053805C
:1020BA00B201A10157FE07C044275527BA014219A8
:1020CA0053096409750937FD03C08D7F9A83898393
:1020DA00950157FC05C0898182FD02C083FF02C0B9
:1020EA0021503109CE0101967C010AE010E0C601B7
:1020FA000E946D1257FC03C0298122FF0AC0019772
:10210A00F301E80FF91F57FC02C02BE209C02DE2C8
:10211A0007C023FF06C00197F301E80FF91F20E269
:10212A002083E980FA80F601208531852150310922
:10213A00281B390B860D971DAC0160E88501C40187
:10214A000E94D7159C01F4018081918190FF06C0FD
:10215A00F60182819381821793070CF4C9012296B2
:06216A00E2E10C94B91C37
:10217000EF92FF920F931F93CF93DF9360913E01F5
:1021800070913F016115710509F45BC0FB01A0E08E
:10219000B0E040E050E0C0E0D0E000811181228159
:1021A00033810817190771F4109729F013963C939F
:1021B0002E93129704C030933F0120933E01CF012C
:1021C000029641C08017910748F4209729F0E880D3
:1021D000F9800E151F0510F4AD01EF01DF01211587
:1021E000310511F0F901D9CF209759F10A811B81EE
:1021F000FE0121913191281B390B2530310588F0E2
:1022000099838883DF01A80FB91F225031091196E5
:102210003C932E9312960C93129713961C9313973C
:102220008D01C617D70729F400933E0110933F0193
:1022300006C0DA0112960C93129713961C93CF01E5
:1022400002C080E090E0CDB7DEB7E6E00C94C51C9C
:10225000A2E0B0E0EEE2F1E10C94A71C8C0182E870
:1022600097E10115110509F455C0892B79F0023069
:10227000110510F402E010E0C8010E94B8100097A8
:1022800009F04FC092E0E92EF12C04C082E8E82E5C
:1022900087E1F82E80914001909141012091420107
:1022A00030914301821B930B6701C00ED11E801732
:1022B0009107F0F4DA82C982CE0101960E946B1870
:1022C000009719F480E090E02CC0209140013091FB
:1022D00041018217930721F09093430180934201BB
:1022E00029813A81820F931F90934101809340018D
:1022F000E0914201F0914301CF01E114F10419F0A2
:10230000029611830083CE0EDF1ED0924301C0924D
:10231000420107C0009709F0ADCF7C0101E010E059
:0A232000B9CF2296E8E00C94C31C2C
:10232A00CF93DF93DC01F90168387105F1F05CF4B1
:10233A006138710561F164387105C9F16038710558
:10234A0009F056C034C0603C710561F1603F710507
:10235A0009F443C0603A710509F04AC0C081D181CD
:10236A00CE010296918380832AC0C081D181CE0199
:10237A00029691838083452B39F04881042E000C04
:10238A00550B660B770B21C0488150E02EC0C081E7
:10239A00D181CE01049691838083488159816A81D3
:1023AA007B8113C0C081D181CE0102961AC0C0813F
:1023BA00D181CE01029691838083452BA1F0488179
:1023CA005981052E000C660B770B4D935D936D9327
:1023DA007C93139781E090E00DC0C081D181CE013A
:1023EA000396918380834881598160E070E0EDCF44
:0A23FA0080E090E0DF91CF9108959C
:10240400BF92CF92DF92EF92FF920F931F93CF93DD
:10241400DF938C01E12CF12CB12C4BC0D801149624
:10242400ED91FC9115976701EE0DFF1D41E0608170
:1024340011968C910E941B1CC0E0D0E01CC0D801F6
:102444001296ED91FC911397EC0FFD1F60818C9116
:102454000E94021D882371F0F801808591852681F0
:102464002E9DF0012F9DF00D1124EC0FFD1FE80FA0
:10247400F91FB0802196D80116968C91169790E09A
:10248400C817D907E4F2EFE1FEE43197F1F700C091
:10249400000014968D919C911597FC01EC0DFD1D87
:1024A40040E0608111968C910E941B1CBFEFEB1AD7
:1024B400FB0AF801878190E0E816F9060CF4AECF28
:1024C4008B2DDF91CF911F910F91FF90EF90DF90B3
:0624D400CF90BF900895B7
:1024DA00A0E0B0E0E3E7F2E10C949F1CDC012801E4
:1024EA001696AD90BC901797F7018081918112964C
:1024FA00ED91FC9113971896CD91DC91199721973C
:10250A00F7FF02C0E1E0F0E0CA0DDB1D18826901A5
:10251A00A1E0B0E08F01021B130B4C01F2E08F2205
:10252A009924052C000C66087708CE018A199B09A4
:10253A00CA15DB0519F1411551056105710589F0C7
:10254A00CB01BA01A30192010E94411CCA01A62F24
:10255A00B72F605D6A9341E0C41AD108A901BC0192
:10256A00E4CF98012C0D3D1D121613064CF31C14D2
:10257A001D0434F48114910419F702C080E090E03C
:10258A00AB2B31F4F701208131812F7E31832083F7
:0A259A00CDB7DEB7E0E10C94BB1CE6
:1025A4007F928F929F92AF92BF92CF92DF92EF92DF
:1025B400FF920F931F93CF93DF93EC01A62E062F68
:1025C40010E0C80101960E9428114C0180E090E0BF
:1025D40006C0F401E80FF91F20E22083019680175A
:1025E4009107BCF3F401EA0DF11D108228853985A9
:1025F4004A855B856C857D85722E7A188E859F85CC
:10260400B12CC12CD12CE12CF12C00E010E00E9463
:102614009D1D288739874A875B876C877D878E87CE
:102624009F87B401CE010E94380A788619861A86DB
:102634001B861C861D861E861F86C4010E94821767
:10264400DF91CF911F910F91FF90EF90DF90CF908A
:0C265400BF90AF909F908F907F900895F2
:102660004F925F927F928F929F92AF92BF92CF9242
:10267000DF92EF92FF920F931F93CF93DF93683017
:10268000E0F52A01EC0170E0685F7F4F660F660F8E
:10269000660F6F9388809980AA80BB80CC80DD8094
:1026A000EE80FF80088519852A853B854C855D85F0
:1026B0006E857F8588890E94060D0F90712C1AC047
:1026C000F201E70DF11D80818F9388809980AA80A7
:1026D000BB80CC80DD80EE80FF80088519852A854F
:1026E0003B854C855D856E857F8588890E94EA0DD6
:1026F00073940F9087E0871518F7DF91CF911F91A2
:102700000F91FF90EF90DF90CF90BF90AF909F9090
:0A2710008F907F905F904F90089526
:10271A008F929F92AF92BF92CF92DF92EF92FF92E7
:10272A000F931F93CF93DF93EC01F70168834983DB
:10273A003B832A830C8380818D8381818E8382816E
:10274A008F83188619861A861B861C861D861E8606
:10275A001F86188A6623B1F0613039F5862E942EC9
:10276A00AA80BB80C02EDD80EE80F82E00E010E04B
:10277A0020E030E040E050E060E070E080E00E945D
:10278A00220513C088809980AA80BB80CC80DD8016
:10279A00EE80FF80088519852A853B854C855D85F5
:1027AA006E857F8588890E944309CE01DF91CF918A
:1027BA001F910F91FF90EF90DF90CF90BF90AF9055
:0627CA009F908F9008951E
:1027D000A2E0B0E0EEEEF3E10C94A11C5C016B0111
:1027E000FB012281338184809580808191819A834D
:1027F00089836680778037FD03C08D7F9A838983C4
:10280000FA014081518162817381CE0101967C0180
:1028100008E010E09401C6010E946D12298124FF96
:1028200006C00197F301E80FF91F20E320832981F7
:1028300023FF06C00197F301E80FF91F20E2208370
:10284000E980FA80F6012085318521503109281B65
:10285000390B860D971DAC0160E88401C5010E940B
:10286000D7159C01F5018081918190FF06C0F6018A
:1028700082819381821793070CF4C9012296EEE0BE
:042880000C94BD1CDB
:102884000F931F93CF93DF93CDB7DEB72A970FB67D
:10289400F894DEBF0FBECDBF8C0183E089831A821A
:1028A40080E28B831C8227ED30E040E086E0F90172
:1028B400DE011596742F0E94571D9E012B5F3F4F1A
:1028C4004AE050E063E070E0C8010E941A0C1AC0AC
:1028D4009E012F5F3F4F4FE050E063E070E0C8017E
:1028E4000E941A0C8FE39CE90197F1F700C00000E5
:1028F4009E012D5F3F4F4FE050E063E070E0C80160
:102904000E941A0C67E083E20E94021D8111E0CF4D
:10291400C8010E9439152A960FB6F894DEBF0FBE7F
:0C292400CDBFDF91CF911F910F9108955E
:102930006F927F928F92EF92FF920F931F93CF939C
:10294000DF93CDB7DEB761970FB6F894DEBF0FBE49
:10295000CDBFFE01319651E1DF011D925A95E9F795
:10296000A2E0B1E0BA83A9839C838B8377FF09C07F
:102970008FE490E090930B0180930A018FEF9FEF1B
:1029800019C03901842E7C01615071097F836E83E7
:102990009801682DA301CF010E94D41C4885598558
:1029A0002E813F814217530708F49A01F701E20F85
:1029B000F31F108261960FB6F894DEBF0FBECDBF35
:1029C000DF91CF911F910F91FF90EF908F907F90AB
:0429D0006F90089567
:1029D4006F927F928F929F92AF92BF92CF92DF922B
:1029E400EF92FF920F931F93CF93DF933C01D62E68
:1029F4004A01F22EC0E0D0E009C0F401EC0FFD1F43
:102A040040E060818D2D0E94331821968E2D90E038
:102A1400C817D90794F3C0E0D0E009C0F801EC0F5F
:102A2400FD1F41E060818F2D0E94331821968C2D6B
:102A340090E0C817D90794F3F301D082F18293820E
:102A4400828215830483E682C782B186A086C3018D
:102A5400DF91CF911F910F91FF90EF90DF90CF9076
:0E2A6400BF90AF909F908F907F906F900895DD
:102A72008F929F92AF92BF92CF92DF92EF92FF928C
:102A82000F931F93CF93DF93EC01188619861A8652
:102A92001B861C861D861E861F86188A81E08F93E0
:102AA20088809980AA80BB80CC80DD80EE80FF8008
:102AB200088519852A853B854C855D856E857F85D0
:102AC20088890E94060D80E88F9388809980AA8069
:102AD200BB80CC80DD80EE80FF80088519852A8549
:102AE2003B854C855D856E857F8588890E94060DB4
:102AF2000F900F90DF91CF911F910F91FF90EF9068
:0E2B0200DF90CF90BF90AF909F908F9008957E
:102B1000CF92DF92EF92DC0190E0292F30E0220F7C
:102B2000331F6901032E000CEE086E2DA6014659D5
:102B30005D4F6F4F6A01E62EFA018491E7FC8081B8
:102B400081110DC02F5F3F4F032E000C440B2659FF
:102B50003D4F4F4FF901849147FD808124C0CD90B6
:102B6000DD90EC901297F6014491E7FC40818413CC
:102B700015C02F5F3F4F032E000C440B26593D4FCD
:102B80004F4FF901949147FD90815FEFC51AD50A27
:102B9000E50ACD92DD92EC92129701C09F5F9B30C7
:0E2BA00008F4BBCF892FEF90DF90CF900895FF
:102BAE006F927F928F92AF92BF92CF92DF92EF92FF
:102BBE00FF920F931F93CF93DF935C013A01862E02
:102BCE00E901670181E0C822DD24E0FC03C0201783
:102BDE00310758F09E01682DA301C5010E94A2186D
:102BEE00C017D10710F0CE0118C07801EC1AFD0AFB
:102BFE00E114F10449F0B50180E290E00E946C16F8
:102C0E0081E0E81AF108F4CFCD2831F49E01682D49
:102C1E00A301C5010E94A218C801DF91CF911F9197
:102C2E000F91FF90EF90DF90CF90BF90AF908F906D
:062C3E007F906F900895E5
:102C4400A3E8B0E0E8E2F6E10C94A31C5C014901BE
:102C5400CF57DF4F488359836A83C158D040C12C72
:102C6400D12CCF57DF4F2881C158D040CE57DF4FEA
:102C74009881C258D040CD57DF4F8881C358D04087
:102C8400E22FF92F949187FD90819923E9F0740143
:102C9400860120E830E0AE014F5F5F4FBE016F5701
:102CA4007F4FC5010E9447018C0D9D1D8C159D050C
:102CB4004CF48FE490E090930B0180930A018FEF22
:102CC4009FEF03C06C01CDCFC601CD57DF4FECE0C1
:042CD4000C94BF1C81
:102CD8000F931F93CF93DF93DB012D913C911197B5
:102CE80030FF25C017964D915C91189715962D9138
:102CF8003C9116974217530778F41296ED91FC9180
:102D08001397808312962D913C9113972F5F3F4F15
:102D180013963C932E93129717962D913C911897E2
:102D28002F5F3F4F18963C932E93179715C01D960B
:102D3800ED91FC911E97309719F48FEF9FEF0CC01F
:102D48008B01EC010995892BC1F7F80187819085E2
:102D5800019690878783CE01DF91CF911F910F91C4
:022D68000895CC
:102D6A00A2E0B0E0EBEBF6E10C94A11C5C016B0174
:102D7A00FB012281338184809580808191819A83AD
:102D8A0089836680778037FD03C08D7F9A83898324
:102D9A00FA014081518162817381CE0101967C01E1
:102DAA000AE010E09401C6010E946D12E980FA80DF
:102DBA00F6012085318521503109281B390B860DF2
:102DCA00971DAC0160E88401C5010E94D7159C01DA
:102DDA00F5018081918190FF06C0F601828193817D
:102DEA00821793070CF4C9012296EEE00C94BD1CDD
:102DFA00CF939B01482FF901849147FD808180324E
:102E0A00C9F1682F082E000C770B695071096530DB
:102E1A00710580F18B3249F5A0E0B0E02F5F3F4F9A
:102E2A004F4F02C0A0E0B0E080E090E0CAE0F901B4
:102E3A00649147FD6081062E000C770B605371097F
:102E4A006A30710560F4C89FF001C99FF00D112422
:102E5A002F5F3F4F4F4FCF01861B970BE8CFAB2B0E
:102E6A0069F491958195910909C08D32D9F6A1E04D
:102E7A00B0E0D4CF2F5F3F4F4F4FBDCFCF910895D2
:102E8A006F927F928F92CF92DF92EF92FF920F937F
:102E9A001F93CF93DF936C01FB013901842EC80184
:102EAA00C281D38104811581E080F180232B242BF8
:102EBA0031F420E8622E22E0722E20E0822E009762
:102ECA0021F4882DB3010E94EC1CD7FD04C0C81759
:102EDA00D90708F4CE019C01682DA301C6010E94FE
:102EEA00D715DF91CF911F910F91FF90EF90DF904F
:0A2EFA00CF908F907F906F900895A5
:102F04000097C9F1FC013297A0913E01B0913F01B5
:102F1400109759F1408151819C01240F351FA2174C
:102F2400B30779F412968D919C91139793838283BE
:102F34002D913C91CA01820F931F02969183808345
:102F440016C08D919C9111979C012E5F3F4F2A0FC3
:102F54003B1FE217F30731F4840F951F02968D93FC
:102F64009C930895B383A28302C013821282F093C8
:082F74003F01E0933E010895C6
:102F7C00DC012D913D914C911297F901849147FD03
:102F8C0080818A3221F080E090E07AE011C02F5FDE
:102F9C003F4F4F4F2D933D934C93DB01ED91FC91A3
:102FAC001197CF0102968D939C9380819181089506
:102FBC002D913D914C911297F901549147FD5081FF
:102FCC0050535A3080F4789FF001799FF00D112402
:102FDC00CF01850F911D2F5F3F4F4F4F2D933D9389
:082FEC004C931297E5CF089504
:102FF400EF92FF920F931F93CF93DF93CDB7DEB77A
:10300400AA970FB6F894DEBF0FBECDBF8C017B012B
:1030140067E070E080E00E94381D20EB31E040E082
:103024008AE2F901DE011196742F0E94571DBE0138
:103034006F5F7F4FC8010E94380AC8010E94421482
:10304400B701C8010E944006AA960FB6F894DEBFE5
:103054000FBECDBFDF91CF911F910F91FF90EF90E5
:023064000895CD
:10306600CF93DF93D62FC42F0E94B91DC13089F0AC
:1030760018F0C230D1F029C0FC01418121E030E0D6
:1030860002C0220F331FDA95E2F72095242321830D
:103096001CC0FC01418121E030E002C0220F331F39
:1030A600DA95E2F7242B218310C0FC01418121E04F
:1030B60030E002C0220F331FDA95E2F7322F309547
:1030C600342331833281232B2283DF91CF910895DC
:1030D600FC01408151818091440190914501892BE9
:1030E60041F4809148019091490190934501809364
:1030F60044018091460190914701009719F48DB7DC
:103106009EB78097209144013091450128173907D1
:1031160048F08CE090E090930B0180930A0180E0E8
:1031260090E00895821B930B8417950790F3420F46
:0E313600531F5093450140934401C901089571
:103144006F927F928F92CF92DF92EF920F931F93A1
:10315400CF93DF938C016A01E62EE9013A01862EB2
:10316400620E731E811C37FD8A94C614D704E804CA
:1031740079F0F6018491E7FC8081B801082E000CF7
:10318400990B0E946C168FEFC81AD80AE80AEDCF83
:10319400CE01DF91CF911F910F91EF90DF90CF90EF
:0831A4008F907F906F90089559
:1031AC001F920F920FB60F9211242F933F934F93B0
:1031BC005F936F937F938F939F93AF93BF93EF9393
:1031CC00FF93E0913C01F0913D01309729F0809103
:1031DC008600909187000995FF91EF91BF91AF9177
:1031EC009F918F917F916F915F914F913F912F9113
:0A31FC000F900FBE0F901F90189562
:103206001F920F920FB60F9211242F933F934F9355
:103216005F936F937F938F939F93AF93BF93EF9338
:10322600FF93E0910201F0910301309721F0809124
:10323600C60090E00995FF91EF91BF91AF919F91E4
:103246008F917F916F915F914F913F912F910F9049
:083256000FBE0F901F901895A8
:10325E001F920F920FB60F9211242F933F934F93FD
:10326E005F936F937F938F939F93AF93BF93EF93E0
:10327E00FF93E0910401F0910501309721F08091C8
:10328E00C60090E00995FF91EF91BF91AF919F918C
:10329E008F917F916F915F914F913F912F910F90F1
:0832AE000FBE0F901F90189550
:1032B6001F920F920FB60F9211242F933F934F93A5
:1032C6005F936F937F938F939F93AF93BF93EF9388
:1032D600FF93E0910601F0910701309721F080916C
:1032E600C60090E00995FF91EF91BF91AF919F9134
:1032F6008F917F916F915F914F913F912F910F9099
:083306000FBE0F901F901895F7
:10330E000F931F93CF93DF93CDB7DEB76C970FB6A6
:10331E00F894DEBF0FBECDBF8C012DED30E040E046
:10332E008CE1F901DE011196742F0E94571DBE012A
:10333E006F5F7F4FC8010E94380AC8010E94421475
:10334E006C960FB6F894DEBF0FBECDBFDF91CF9156
:06335E001F910F9108957C
:103364000F931F93CF93DF93CDB7DEB7E1970FB6DB
:10337400F894DEBF0FBECDBF8C0129EF30E040E0F2
:1033840081E3F901DE011196742F0E94571DBE01DD
:103394006F5F7F4FC8010E94380AC8010E9442141F
:1033A400E1960FB6F894DEBF0FBECDBFDF91CF918B
:0633B4001F910F91089526
:1033BA001F920F920FB60F9211242F933F934F93A0
:1033CA005F936F937F938F939F93AF93BF93EF9383
:1033DA00FF93E0913201F0913301309709F009959A
:1033EA00FF91EF91BF91AF919F918F917F916F91D3
:1033FA005F914F913F912F910F900FBE0F901F90A9
:02340A00189513
:10340C001F920F920FB60F9211242F933F934F934D
:10341C005F936F937F938F939F93AF93BF93EF9330
:10342C00FF93E0913401F0913501309709F0099543
:10343C00FF91EF91BF91AF919F918F917F916F9180
:10344C005F914F913F912F910F900FBE0F901F9056
:02345C001895C1
:10345E001F920F920FB60F9211242F933F934F93FB
:10346E005F936F937F938F939F93AF93BF93EF93DE
:10347E00FF93E0913601F0913701309709F00995ED
:10348E00FF91EF91BF91AF919F918F917F916F912E
:10349E005F914F913F912F910F900FBE0F901F9004
:0234AE0018956F
:1034B0001F920F920FB60F9211242F933F934F93A9
:1034C0005F936F937F938F939F93AF93BF93EF938C
:1034D000FF93E0913801F0913901309709F0099597
:1034E000FF91EF91BF91AF919F918F917F916F91DC
:1034F0005F914F913F912F910F900FBE0F901F90B2
:0235000018951C
:103502001F920F920FB60F9211242F933F934F9356
:103512005F936F937F938F939F93AF93BF93EF9339
:10352200FF93E0913A01F0913B01309709F0099540
:10353200FF91EF91BF91AF919F918F917F916F9189
:103542005F914F913F912F910F900FBE0F901F905F
:023552001895CA
:103554001F920F920FB60F9211242F933F934F9304
:103564005F936F937F938F939F93AF93BF93EF93E7
:10357400FF93E0912001F0912101309709F0099522
:10358400FF91EF91BF91AF919F918F917F916F9137
:103594005F914F913F912F910F900FBE0F901F900D
:0235A400189578
:1035A6001F920F920FB60F9211242F933F934F93B2
:1035B6005F936F937F938F939F93AF93BF93EF9395
:1035C600FF93E0912201F0912301309709F00995CC
:1035D600FF91EF91BF91AF919F918F917F916F91E5
:1035E6005F914F913F912F910F900FBE0F901F90BB
:0235F600189526
:1035F8001F920F920FB60F9211242F933F934F9360
:103608005F936F937F938F939F93AF93BF93EF9342
:10361800FF93E0912401F0912501309709F0099575
:10362800FF91EF91BF91AF919F918F917F916F9192
:103638005F914F913F912F910F900FBE0F901F9068
:023648001895D3
:10364A001F920F920FB60F9211242F933F934F930D
:10365A005F936F937F938F939F93AF93BF93EF93F0
:10366A00FF93E0912601F0912701309709F009951F
:10367A00FF91EF91BF91AF919F918F917F916F9140
:10368A005F914F913F912F910F900FBE0F901F9016
:02369A00189581
:10369C001F920F920FB60F9211242F933F934F93BB
:1036AC005F936F937F938F939F93AF93BF93EF939E
:1036BC00FF93E0912801F0912901309709F00995C9
:1036CC00FF91EF91BF91AF919F918F917F916F91EE
:1036DC005F914F913F912F910F900FBE0F901F90C4
:0236EC0018952F
:1036EE001F920F920FB60F9211242F933F934F9369
:1036FE005F936F937F938F939F93AF93BF93EF934C
:10370E00FF93E0912A01F0912B01309709F0099572
:10371E00FF91EF91BF91AF919F918F917F916F919B
:10372E005F914F913F912F910F900FBE0F901F9071
:02373E001895DC
:103740001F920F920FB60F9211242F933F934F9316
:103750005F936F937F938F939F93AF93BF93EF93F9
:10376000FF93E0912C01F0912D01309709F009951C
:10377000FF91EF91BF91AF919F918F917F916F9149
:103780005F914F913F912F910F900FBE0F901F901F
:0237900018958A
:103792001F920F920FB60F9211242F933F934F93C4
:1037A2005F936F937F938F939F93AF93BF93EF93A7
:1037B200FF93E0912E01F0912F01309709F00995C6
:1037C200FF91EF91BF91AF919F918F917F916F91F7
:1037D2005F914F913F912F910F900FBE0F901F90CD
:0237E200189538
:1037E4001F920F920FB60F9211242F933F934F9372
:1037F4005F936F937F938F939F93AF93BF93EF9355
:10380400FF93E0913001F0913101309709F009956F
:10381400FF91EF91BF91AF919F918F917F916F91A4
:103824005F914F913F912F910F900FBE0F901F907A
:023834001895E5
:10383600CF93DF93D62FC42F0E94B91DCC2319F046
:10384600C13071F018C0FC01428121E030E002C0B5
:10385600220F331FDA95E2F72095242322830BC02B
:10386600FC01428121E030E002C0220F331FDA95CD
:0C387600E2F7242B2283DF91CF9108950C
:10388200A1E21A2EAA1BBB1BFD010DC0AA1FBB1F62
:10389200EE1FFF1FA217B307E407F50720F0A21BD4
:1038A200B30BE40BF50B661F771F881F991F1A9441
:1038B20069F760957095809590959B01AC01BD016B
:0438C200CF01089595
:1038C6000F93CF93DF93FC01C62F642FD22F408333
:1038D60021830283C38341E08C2F0E94331841E089
:1038E6006D2F8C2F0E94331841E0602F8C2F0E9481
:0A38F6003318DF91CF910F91089570
:10390000CF93DF93EC01662359F041E068818B810E
:103910000E941B1C40E069818B810E941B1C0AC015
:1039200041E069818B810E941B1C40E068818B8192
:0A3930000E941B1CDF91CF91089547
:10393A002F923F924F925F926F927F928F929F92B5
:10394A00AF92BF92CF92DF92EF92FF920F931F93A3
:10395A00CF93DF93CDB7DEB7CA1BDB0B0FB6F89454
:08396A00DEBF0FBECDBF0994C2
:103972002A88398848885F846E847D848C849B84FD
:10398200AA84B984C884DF80EE80FD800C811B810B
:10399200AA81B981CE0FD11D0FB6F894DEBF0FBE3A
:0639A200CDBFED01089508
:1039A800A2E0B0E0EAEDFCE10C94AB1C8C013A8398
:1039B80029839E012F5F3F4F0E942216F801208124
:1039C80024FF02C08FEF9FEF2296E4E00C94C71CFF
:1039D800CF92DF92EF926B01E82EA82FCB01FC016A
:1039E8002491A7FD2081222319F00196A11DF7CF6C
:0C39F8008C199D09EF90DF90CF9008958E
:103A0400CF93C62F0E94B91DC83050F4FC018081A9
:103A140090E002C095958795CA95E2F7817001C040
:063A24008FEFCF91089521
:103A2A00A0E0B0E0EBE1FDE10C94AD1C9E01265F45
:103A3A003F4F4F81588569858D819E810E947C1DEB
:063A4A00E2E00C94C91C2F
:103A5000CF93DF93EC0140E069818B810E941B1CB6
:103A600040E068818B810E941B1CDF91CF910895FB
:103A7000611594E0790758F4F999FECF72BD61BDE4
:103A800080BD8FB384608FBB8FB382608FBB08957E
:103A9000811524E0920748F4F999FECF92BD81BDCB
:0E3AA0008FB381608FBB80B5089580E00895DC
:103AAE00992777FD05C005900D920197E1F70895CE
:0A3ABE0001900D920197E1F70895C1
:103AC8000024A7FD00942A0F301D401D501D601DC5
:083AD800701D801D901D089572
:103AE0000024A7FD00942A17300540055005600505
:083AF0007005800590050895A2
:103AF8000F931F9389019A01462F6FEF7FE70E946A
:083B080098141F910F9108951C
:103B1000EC010E94BE1D0E94BD1DCE010E94BF1D72
:063B2000CE010E94BB1D56
:103B26001F920F920FB60F9211240F900FBE0F9097
:043B36001F9018952F
:103B3A002A193B094C095D096E097F09800B910B13
:023B4A000895DC
:103B4C009C01215631092A31310510F48F759927C2
:023B5C000895CA
:103B5E009C01215431092A31310508F480620895FF
:043B6E000C940000B3
:043B720090E0089542
:043B76000E94680041
:023B7A000895AC
:023B7C000895AA
:023B7E000895A8
:103B8000000103070F030100313233343536373873
:043B9000392A30237B
:023B940000002F
:023B96004A01E2
:00000001FF
